{
  "_format": "hh-sol-artifact-1",
  "contractName": "VideoNFT",
  "sourceName": "contracts/VideoNft.sol",
  "abi": [
    {
      "inputs": [],
      "stateMutability": "nonpayable",
      "type": "constructor"
    },
    {
      "inputs": [
        {
          "internalType": "address",
          "name": "sender",
          "type": "address"
        },
        {
          "internalType": "uint256",
          "name": "tokenId",
          "type": "uint256"
        },
        {
          "internalType": "address",
          "name": "owner",
          "type": "address"
        }
      ],
      "name": "ERC721IncorrectOwner",
      "type": "error"
    },
    {
      "inputs": [
        {
          "internalType": "address",
          "name": "operator",
          "type": "address"
        },
        {
          "internalType": "uint256",
          "name": "tokenId",
          "type": "uint256"
        }
      ],
      "name": "ERC721InsufficientApproval",
      "type": "error"
    },
    {
      "inputs": [
        {
          "internalType": "address",
          "name": "approver",
          "type": "address"
        }
      ],
      "name": "ERC721InvalidApprover",
      "type": "error"
    },
    {
      "inputs": [
        {
          "internalType": "address",
          "name": "operator",
          "type": "address"
        }
      ],
      "name": "ERC721InvalidOperator",
      "type": "error"
    },
    {
      "inputs": [
        {
          "internalType": "address",
          "name": "owner",
          "type": "address"
        }
      ],
      "name": "ERC721InvalidOwner",
      "type": "error"
    },
    {
      "inputs": [
        {
          "internalType": "address",
          "name": "receiver",
          "type": "address"
        }
      ],
      "name": "ERC721InvalidReceiver",
      "type": "error"
    },
    {
      "inputs": [
        {
          "internalType": "address",
          "name": "sender",
          "type": "address"
        }
      ],
      "name": "ERC721InvalidSender",
      "type": "error"
    },
    {
      "inputs": [
        {
          "internalType": "uint256",
          "name": "tokenId",
          "type": "uint256"
        }
      ],
      "name": "ERC721NonexistentToken",
      "type": "error"
    },
    {
      "inputs": [
        {
          "internalType": "address",
          "name": "owner",
          "type": "address"
        }
      ],
      "name": "OwnableInvalidOwner",
      "type": "error"
    },
    {
      "inputs": [
        {
          "internalType": "address",
          "name": "account",
          "type": "address"
        }
      ],
      "name": "OwnableUnauthorizedAccount",
      "type": "error"
    },
    {
      "anonymous": false,
      "inputs": [
        {
          "indexed": true,
          "internalType": "address",
          "name": "owner",
          "type": "address"
        },
        {
          "indexed": true,
          "internalType": "address",
          "name": "approved",
          "type": "address"
        },
        {
          "indexed": true,
          "internalType": "uint256",
          "name": "tokenId",
          "type": "uint256"
        }
      ],
      "name": "Approval",
      "type": "event"
    },
    {
      "anonymous": false,
      "inputs": [
        {
          "indexed": true,
          "internalType": "address",
          "name": "owner",
          "type": "address"
        },
        {
          "indexed": true,
          "internalType": "address",
          "name": "operator",
          "type": "address"
        },
        {
          "indexed": false,
          "internalType": "bool",
          "name": "approved",
          "type": "bool"
        }
      ],
      "name": "ApprovalForAll",
      "type": "event"
    },
    {
      "anonymous": false,
      "inputs": [
        {
          "indexed": false,
          "internalType": "uint256",
          "name": "_fromTokenId",
          "type": "uint256"
        },
        {
          "indexed": false,
          "internalType": "uint256",
          "name": "_toTokenId",
          "type": "uint256"
        }
      ],
      "name": "BatchMetadataUpdate",
      "type": "event"
    },
    {
      "anonymous": false,
      "inputs": [
        {
          "indexed": false,
          "internalType": "uint256",
          "name": "_tokenId",
          "type": "uint256"
        }
      ],
      "name": "MetadataUpdate",
      "type": "event"
    },
    {
      "anonymous": false,
      "inputs": [
        {
          "indexed": true,
          "internalType": "address",
          "name": "previousOwner",
          "type": "address"
        },
        {
          "indexed": true,
          "internalType": "address",
          "name": "newOwner",
          "type": "address"
        }
      ],
      "name": "OwnershipTransferred",
      "type": "event"
    },
    {
      "anonymous": false,
      "inputs": [
        {
          "indexed": true,
          "internalType": "address",
          "name": "from",
          "type": "address"
        },
        {
          "indexed": true,
          "internalType": "address",
          "name": "to",
          "type": "address"
        },
        {
          "indexed": true,
          "internalType": "uint256",
          "name": "tokenId",
          "type": "uint256"
        }
      ],
      "name": "Transfer",
      "type": "event"
    },
    {
      "inputs": [
        {
          "internalType": "address",
          "name": "to",
          "type": "address"
        },
        {
          "internalType": "uint256",
          "name": "tokenId",
          "type": "uint256"
        }
      ],
      "name": "approve",
      "outputs": [],
      "stateMutability": "nonpayable",
      "type": "function"
    },
    {
      "inputs": [
        {
          "internalType": "address",
          "name": "owner",
          "type": "address"
        }
      ],
      "name": "balanceOf",
      "outputs": [
        {
          "internalType": "uint256",
          "name": "",
          "type": "uint256"
        }
      ],
      "stateMutability": "view",
      "type": "function"
    },
    {
      "inputs": [
        {
          "internalType": "uint256",
          "name": "tokenId",
          "type": "uint256"
        }
      ],
      "name": "getApproved",
      "outputs": [
        {
          "internalType": "address",
          "name": "",
          "type": "address"
        }
      ],
      "stateMutability": "view",
      "type": "function"
    },
    {
      "inputs": [
        {
          "internalType": "address",
          "name": "owner",
          "type": "address"
        },
        {
          "internalType": "address",
          "name": "operator",
          "type": "address"
        }
      ],
      "name": "isApprovedForAll",
      "outputs": [
        {
          "internalType": "bool",
          "name": "",
          "type": "bool"
        }
      ],
      "stateMutability": "view",
      "type": "function"
    },
    {
      "inputs": [
        {
          "internalType": "address",
          "name": "recipient",
          "type": "address"
        },
        {
          "internalType": "string",
          "name": "tokenURI",
          "type": "string"
        }
      ],
      "name": "mintVideoNFT",
      "outputs": [
        {
          "internalType": "uint256",
          "name": "",
          "type": "uint256"
        }
      ],
      "stateMutability": "nonpayable",
      "type": "function"
    },
    {
      "inputs": [],
      "name": "name",
      "outputs": [
        {
          "internalType": "string",
          "name": "",
          "type": "string"
        }
      ],
      "stateMutability": "view",
      "type": "function"
    },
    {
      "inputs": [],
      "name": "owner",
      "outputs": [
        {
          "internalType": "address",
          "name": "",
          "type": "address"
        }
      ],
      "stateMutability": "view",
      "type": "function"
    },
    {
      "inputs": [
        {
          "internalType": "uint256",
          "name": "tokenId",
          "type": "uint256"
        }
      ],
      "name": "ownerOf",
      "outputs": [
        {
          "internalType": "address",
          "name": "",
          "type": "address"
        }
      ],
      "stateMutability": "view",
      "type": "function"
    },
    {
      "inputs": [],
      "name": "renounceOwnership",
      "outputs": [],
      "stateMutability": "nonpayable",
      "type": "function"
    },
    {
      "inputs": [
        {
          "internalType": "address",
          "name": "from",
          "type": "address"
        },
        {
          "internalType": "address",
          "name": "to",
          "type": "address"
        },
        {
          "internalType": "uint256",
          "name": "tokenId",
          "type": "uint256"
        }
      ],
      "name": "safeTransferFrom",
      "outputs": [],
      "stateMutability": "nonpayable",
      "type": "function"
    },
    {
      "inputs": [
        {
          "internalType": "address",
          "name": "from",
          "type": "address"
        },
        {
          "internalType": "address",
          "name": "to",
          "type": "address"
        },
        {
          "internalType": "uint256",
          "name": "tokenId",
          "type": "uint256"
        },
        {
          "internalType": "bytes",
          "name": "data",
          "type": "bytes"
        }
      ],
      "name": "safeTransferFrom",
      "outputs": [],
      "stateMutability": "nonpayable",
      "type": "function"
    },
    {
      "inputs": [
        {
          "internalType": "address",
          "name": "operator",
          "type": "address"
        },
        {
          "internalType": "bool",
          "name": "approved",
          "type": "bool"
        }
      ],
      "name": "setApprovalForAll",
      "outputs": [],
      "stateMutability": "nonpayable",
      "type": "function"
    },
    {
      "inputs": [
        {
          "internalType": "bytes4",
          "name": "interfaceId",
          "type": "bytes4"
        }
      ],
      "name": "supportsInterface",
      "outputs": [
        {
          "internalType": "bool",
          "name": "",
          "type": "bool"
        }
      ],
      "stateMutability": "view",
      "type": "function"
    },
    {
      "inputs": [],
      "name": "symbol",
      "outputs": [
        {
          "internalType": "string",
          "name": "",
          "type": "string"
        }
      ],
      "stateMutability": "view",
      "type": "function"
    },
    {
      "inputs": [],
      "name": "tokenCounter",
      "outputs": [
        {
          "internalType": "uint256",
          "name": "",
          "type": "uint256"
        }
      ],
      "stateMutability": "view",
      "type": "function"
    },
    {
      "inputs": [
        {
          "internalType": "uint256",
          "name": "tokenId",
          "type": "uint256"
        }
      ],
      "name": "tokenURI",
      "outputs": [
        {
          "internalType": "string",
          "name": "",
          "type": "string"
        }
      ],
      "stateMutability": "view",
      "type": "function"
    },
    {
      "inputs": [
        {
          "internalType": "address",
          "name": "from",
          "type": "address"
        },
        {
          "internalType": "address",
          "name": "to",
          "type": "address"
        },
        {
          "internalType": "uint256",
          "name": "tokenId",
          "type": "uint256"
        }
      ],
      "name": "transferFrom",
      "outputs": [],
      "stateMutability": "nonpayable",
      "type": "function"
    },
    {
      "inputs": [
        {
          "internalType": "address",
          "name": "newOwner",
          "type": "address"
        }
      ],
      "name": "transferOwnership",
      "outputs": [],
      "stateMutability": "nonpayable",
      "type": "function"
    }
  ],
  "bytecode": "0x60806040523480156200001157600080fd5b50336040518060400160405280600f81526020017f4c696c616320566964656f204e465400000000000000000000000000000000008152506040518060400160405280600581526020017f4c564e465400000000000000000000000000000000000000000000000000000081525081600090816200009091906200047a565b508060019081620000a291906200047a565b505050600073ffffffffffffffffffffffffffffffffffffffff168173ffffffffffffffffffffffffffffffffffffffff16036200011a5760006040517f1e4fbdf7000000000000000000000000000000000000000000000000000000008152600401620001119190620005a6565b60405180910390fd5b6200012b816200013a60201b60201c565b506000600881905550620005c3565b6000600760009054906101000a900473ffffffffffffffffffffffffffffffffffffffff16905081600760006101000a81548173ffffffffffffffffffffffffffffffffffffffff021916908373ffffffffffffffffffffffffffffffffffffffff1602179055508173ffffffffffffffffffffffffffffffffffffffff168173ffffffffffffffffffffffffffffffffffffffff167f8be0079c531659141344cd1fd0a4f28419497f9722a3daafe3b4186f6b6457e060405160405180910390a35050565b600081519050919050565b7f4e487b7100000000000000000000000000000000000000000000000000000000600052604160045260246000fd5b7f4e487b7100000000000000000000000000000000000000000000000000000000600052602260045260246000fd5b600060028204905060018216806200028257607f821691505b6020821081036200029857620002976200023a565b5b50919050565b60008190508160005260206000209050919050565b60006020601f8301049050919050565b600082821b905092915050565b600060088302620003027fffffffffffffffffffffffffffffffffffffffffffffffffffffffffffffffff82620002c3565b6200030e8683620002c3565b95508019841693508086168417925050509392505050565b6000819050919050565b6000819050919050565b60006200035b620003556200034f8462000326565b62000330565b62000326565b9050919050565b6000819050919050565b62000377836200033a565b6200038f620003868262000362565b848454620002d0565b825550505050565b600090565b620003a662000397565b620003b38184846200036c565b505050565b5b81811015620003db57620003cf6000826200039c565b600181019050620003b9565b5050565b601f8211156200042a57620003f4816200029e565b620003ff84620002b3565b810160208510156200040f578190505b620004276200041e85620002b3565b830182620003b8565b50505b505050565b600082821c905092915050565b60006200044f600019846008026200042f565b1980831691505092915050565b60006200046a83836200043c565b9150826002028217905092915050565b620004858262000200565b67ffffffffffffffff811115620004a157620004a06200020b565b5b620004ad825462000269565b620004ba828285620003df565b600060209050601f831160018114620004f25760008415620004dd578287015190505b620004e985826200045c565b86555062000559565b601f19841662000502866200029e565b60005b828110156200052c5784890151825560018201915060208501945060208101905062000505565b868310156200054c578489015162000548601f8916826200043c565b8355505b6001600288020188555050505b505050505050565b600073ffffffffffffffffffffffffffffffffffffffff82169050919050565b60006200058e8262000561565b9050919050565b620005a08162000581565b82525050565b6000602082019050620005bd600083018462000595565b92915050565b6126b280620005d36000396000f3fe608060405234801561001057600080fd5b50600436106101165760003560e01c80638da5cb5b116100a2578063b88d4fde11610071578063b88d4fde146102df578063c87b56dd146102fb578063d082e3811461032b578063e985e9c514610349578063f2fde38b1461037957610116565b80638da5cb5b14610257578063922779681461027557806395d89b41146102a5578063a22cb465146102c357610116565b806323b872dd116100e957806323b872dd146101b557806342842e0e146101d15780636352211e146101ed57806370a082311461021d578063715018a61461024d57610116565b806301ffc9a71461011b57806306fdde031461014b578063081812fc14610169578063095ea7b314610199575b600080fd5b61013560048036038101906101309190611b0a565b610395565b6040516101429190611b52565b60405180910390f35b6101536103f6565b6040516101609190611bfd565b60405180910390f35b610183600480360381019061017e9190611c55565b610488565b6040516101909190611cc3565b60405180910390f35b6101b360048036038101906101ae9190611d0a565b6104a4565b005b6101cf60048036038101906101ca9190611d4a565b6104ba565b005b6101eb60048036038101906101e69190611d4a565b6105bc565b005b61020760048036038101906102029190611c55565b6105dc565b6040516102149190611cc3565b60405180910390f35b61023760048036038101906102329190611d9d565b6105ee565b6040516102449190611dd9565b60405180910390f35b6102556106a8565b005b61025f6106bc565b60405161026c9190611cc3565b60405180910390f35b61028f600480360381019061028a9190611f29565b6106e6565b60405161029c9190611dd9565b60405180910390f35b6102ad61072d565b6040516102ba9190611bfd565b60405180910390f35b6102dd60048036038101906102d89190611fb1565b6107bf565b005b6102f960048036038101906102f49190612092565b6107d5565b005b61031560048036038101906103109190611c55565b6107fa565b6040516103229190611bfd565b60405180910390f35b61033361090d565b6040516103409190611dd9565b60405180910390f35b610363600480360381019061035e9190612115565b610913565b6040516103709190611b52565b60405180910390f35b610393600480360381019061038e9190611d9d565b6109a7565b005b6000634906490660e01b7bffffffffffffffffffffffffffffffffffffffffffffffffffffffff1916827bffffffffffffffffffffffffffffffffffffffffffffffffffffffff191614806103ef57506103ee82610a2d565b5b9050919050565b60606000805461040590612184565b80601f016020809104026020016040519081016040528092919081815260200182805461043190612184565b801561047e5780601f106104535761010080835404028352916020019161047e565b820191906000526020600020905b81548152906001019060200180831161046157829003601f168201915b5050505050905090565b600061049382610b0f565b5061049d82610b97565b9050919050565b6104b682826104b1610bd4565b610bdc565b5050565b600073ffffffffffffffffffffffffffffffffffffffff168273ffffffffffffffffffffffffffffffffffffffff160361052c5760006040517f64a0ae920000000000000000000000000000000000000000000000000000000081526004016105239190611cc3565b60405180910390fd5b6000610540838361053b610bd4565b610bee565b90508373ffffffffffffffffffffffffffffffffffffffff168173ffffffffffffffffffffffffffffffffffffffff16146105b6578382826040517f64283d7b0000000000000000000000000000000000000000000000000000000081526004016105ad939291906121b5565b60405180910390fd5b50505050565b6105d7838383604051806020016040528060008152506107d5565b505050565b60006105e782610b0f565b9050919050565b60008073ffffffffffffffffffffffffffffffffffffffff168273ffffffffffffffffffffffffffffffffffffffff16036106615760006040517f89c62b640000000000000000000000000000000000000000000000000000000081526004016106589190611cc3565b60405180910390fd5b600360008373ffffffffffffffffffffffffffffffffffffffff1673ffffffffffffffffffffffffffffffffffffffff168152602001908152602001600020549050919050565b6106b0610e08565b6106ba6000610e8f565b565b6000600760009054906101000a900473ffffffffffffffffffffffffffffffffffffffff16905090565b60006106f0610e08565b600060085490506107018482610f55565b61070b8184610f73565b6008600081548092919061071e9061221b565b91905055508091505092915050565b60606001805461073c90612184565b80601f016020809104026020016040519081016040528092919081815260200182805461076890612184565b80156107b55780601f1061078a576101008083540402835291602001916107b5565b820191906000526020600020905b81548152906001019060200180831161079857829003601f168201915b5050505050905090565b6107d16107ca610bd4565b8383610fcf565b5050565b6107e08484846104ba565b6107f46107eb610bd4565b8585858561113e565b50505050565b606061080582610b0f565b50600060066000848152602001908152602001600020805461082690612184565b80601f016020809104026020016040519081016040528092919081815260200182805461085290612184565b801561089f5780601f106108745761010080835404028352916020019161089f565b820191906000526020600020905b81548152906001019060200180831161088257829003601f168201915b5050505050905060006108b06112ef565b905060008151036108c5578192505050610908565b6000825111156108fa5780826040516020016108e292919061229f565b60405160208183030381529060405292505050610908565b61090384611306565b925050505b919050565b60085481565b6000600560008473ffffffffffffffffffffffffffffffffffffffff1673ffffffffffffffffffffffffffffffffffffffff16815260200190815260200160002060008373ffffffffffffffffffffffffffffffffffffffff1673ffffffffffffffffffffffffffffffffffffffff16815260200190815260200160002060009054906101000a900460ff16905092915050565b6109af610e08565b600073ffffffffffffffffffffffffffffffffffffffff168173ffffffffffffffffffffffffffffffffffffffff1603610a215760006040517f1e4fbdf7000000000000000000000000000000000000000000000000000000008152600401610a189190611cc3565b60405180910390fd5b610a2a81610e8f565b50565b60007f80ac58cd000000000000000000000000000000000000000000000000000000007bffffffffffffffffffffffffffffffffffffffffffffffffffffffff1916827bffffffffffffffffffffffffffffffffffffffffffffffffffffffff19161480610af857507f5b5e139f000000000000000000000000000000000000000000000000000000007bffffffffffffffffffffffffffffffffffffffffffffffffffffffff1916827bffffffffffffffffffffffffffffffffffffffffffffffffffffffff1916145b80610b085750610b078261136f565b5b9050919050565b600080610b1b836113d9565b9050600073ffffffffffffffffffffffffffffffffffffffff168173ffffffffffffffffffffffffffffffffffffffff1603610b8e57826040517f7e273289000000000000000000000000000000000000000000000000000000008152600401610b859190611dd9565b60405180910390fd5b80915050919050565b60006004600083815260200190815260200160002060009054906101000a900473ffffffffffffffffffffffffffffffffffffffff169050919050565b600033905090565b610be98383836001611416565b505050565b600080610bfa846113d9565b9050600073ffffffffffffffffffffffffffffffffffffffff168373ffffffffffffffffffffffffffffffffffffffff1614610c3c57610c3b8184866115db565b5b600073ffffffffffffffffffffffffffffffffffffffff168173ffffffffffffffffffffffffffffffffffffffff1614610ccd57610c7e600085600080611416565b6001600360008373ffffffffffffffffffffffffffffffffffffffff1673ffffffffffffffffffffffffffffffffffffffff168152602001908152602001600020600082825403925050819055505b600073ffffffffffffffffffffffffffffffffffffffff168573ffffffffffffffffffffffffffffffffffffffff1614610d50576001600360008773ffffffffffffffffffffffffffffffffffffffff1673ffffffffffffffffffffffffffffffffffffffff168152602001908152602001600020600082825401925050819055505b846002600086815260200190815260200160002060006101000a81548173ffffffffffffffffffffffffffffffffffffffff021916908373ffffffffffffffffffffffffffffffffffffffff160217905550838573ffffffffffffffffffffffffffffffffffffffff168273ffffffffffffffffffffffffffffffffffffffff167fddf252ad1be2c89b69c2b068fc378daa952ba7f163c4a11628f55a4df523b3ef60405160405180910390a4809150509392505050565b610e10610bd4565b73ffffffffffffffffffffffffffffffffffffffff16610e2e6106bc565b73ffffffffffffffffffffffffffffffffffffffff1614610e8d57610e51610bd4565b6040517f118cdaa7000000000000000000000000000000000000000000000000000000008152600401610e849190611cc3565b60405180910390fd5b565b6000600760009054906101000a900473ffffffffffffffffffffffffffffffffffffffff16905081600760006101000a81548173ffffffffffffffffffffffffffffffffffffffff021916908373ffffffffffffffffffffffffffffffffffffffff1602179055508173ffffffffffffffffffffffffffffffffffffffff168173ffffffffffffffffffffffffffffffffffffffff167f8be0079c531659141344cd1fd0a4f28419497f9722a3daafe3b4186f6b6457e060405160405180910390a35050565b610f6f82826040518060200160405280600081525061169f565b5050565b80600660008481526020019081526020016000209081610f93919061246f565b507ff8e1a15aba9398e019f0b49df1a4fde98ee17ae345cb5f6b5e2c27f5033e8ce782604051610fc39190611dd9565b60405180910390a15050565b600073ffffffffffffffffffffffffffffffffffffffff168273ffffffffffffffffffffffffffffffffffffffff160361104057816040517f5b08ba180000000000000000000000000000000000000000000000000000000081526004016110379190611cc3565b60405180910390fd5b80600560008573ffffffffffffffffffffffffffffffffffffffff1673ffffffffffffffffffffffffffffffffffffffff16815260200190815260200160002060008473ffffffffffffffffffffffffffffffffffffffff1673ffffffffffffffffffffffffffffffffffffffff16815260200190815260200160002060006101000a81548160ff0219169083151502179055508173ffffffffffffffffffffffffffffffffffffffff168373ffffffffffffffffffffffffffffffffffffffff167f17307eab39ab6107e8899845ad3d59bd9653f200f220920489ca2b5937696c31836040516111319190611b52565b60405180910390a3505050565b60008373ffffffffffffffffffffffffffffffffffffffff163b11156112e8578273ffffffffffffffffffffffffffffffffffffffff1663150b7a02868685856040518563ffffffff1660e01b815260040161119d9493929190612596565b6020604051808303816000875af19250505080156111d957506040513d601f19601f820116820180604052508101906111d691906125f7565b60015b61125d573d8060008114611209576040519150601f19603f3d011682016040523d82523d6000602084013e61120e565b606091505b50600081510361125557836040517f64a0ae9200000000000000000000000000000000000000000000000000000000815260040161124c9190611cc3565b60405180910390fd5b805160208201fd5b63150b7a0260e01b7bffffffffffffffffffffffffffffffffffffffffffffffffffffffff1916817bffffffffffffffffffffffffffffffffffffffffffffffffffffffff1916146112e657836040517f64a0ae920000000000000000000000000000000000000000000000000000000081526004016112dd9190611cc3565b60405180910390fd5b505b5050505050565b606060405180602001604052806000815250905090565b606061131182610b0f565b50600061131c6112ef565b9050600081511161133c5760405180602001604052806000815250611367565b80611346846116c3565b60405160200161135792919061229f565b6040516020818303038152906040525b915050919050565b60007f01ffc9a7000000000000000000000000000000000000000000000000000000007bffffffffffffffffffffffffffffffffffffffffffffffffffffffff1916827bffffffffffffffffffffffffffffffffffffffffffffffffffffffff1916149050919050565b60006002600083815260200190815260200160002060009054906101000a900473ffffffffffffffffffffffffffffffffffffffff169050919050565b808061144f5750600073ffffffffffffffffffffffffffffffffffffffff168273ffffffffffffffffffffffffffffffffffffffff1614155b1561158357600061145f84610b0f565b9050600073ffffffffffffffffffffffffffffffffffffffff168373ffffffffffffffffffffffffffffffffffffffff16141580156114ca57508273ffffffffffffffffffffffffffffffffffffffff168173ffffffffffffffffffffffffffffffffffffffff1614155b80156114dd57506114db8184610913565b155b1561151f57826040517fa9fbf51f0000000000000000000000000000000000000000000000000000000081526004016115169190611cc3565b60405180910390fd5b811561158157838573ffffffffffffffffffffffffffffffffffffffff168273ffffffffffffffffffffffffffffffffffffffff167f8c5be1e5ebec7d5bd14f71427d1e84f3dd0314c0f7b2291e5b200ac8c7c3b92560405160405180910390a45b505b836004600085815260200190815260200160002060006101000a81548173ffffffffffffffffffffffffffffffffffffffff021916908373ffffffffffffffffffffffffffffffffffffffff16021790555050505050565b6115e6838383611791565b61169a57600073ffffffffffffffffffffffffffffffffffffffff168373ffffffffffffffffffffffffffffffffffffffff160361165b57806040517f7e2732890000000000000000000000000000000000000000000000000000000081526004016116529190611dd9565b60405180910390fd5b81816040517f177e802f000000000000000000000000000000000000000000000000000000008152600401611691929190612624565b60405180910390fd5b505050565b6116a98383611852565b6116be6116b4610bd4565b600085858561113e565b505050565b6060600060016116d28461194b565b01905060008167ffffffffffffffff8111156116f1576116f0611dfe565b5b6040519080825280601f01601f1916602001820160405280156117235781602001600182028036833780820191505090505b509050600082602083010190505b600115611786578080600190039150507f3031323334353637383961626364656600000000000000000000000000000000600a86061a8153600a858161177a5761177961264d565b5b04945060008503611731575b819350505050919050565b60008073ffffffffffffffffffffffffffffffffffffffff168373ffffffffffffffffffffffffffffffffffffffff161415801561184957508273ffffffffffffffffffffffffffffffffffffffff168473ffffffffffffffffffffffffffffffffffffffff16148061180a57506118098484610913565b5b8061184857508273ffffffffffffffffffffffffffffffffffffffff1661183083610b97565b73ffffffffffffffffffffffffffffffffffffffff16145b5b90509392505050565b600073ffffffffffffffffffffffffffffffffffffffff168273ffffffffffffffffffffffffffffffffffffffff16036118c45760006040517f64a0ae920000000000000000000000000000000000000000000000000000000081526004016118bb9190611cc3565b60405180910390fd5b60006118d283836000610bee565b9050600073ffffffffffffffffffffffffffffffffffffffff168173ffffffffffffffffffffffffffffffffffffffff16146119465760006040517f73c6ac6e00000000000000000000000000000000000000000000000000000000815260040161193d9190611cc3565b60405180910390fd5b505050565b600080600090507a184f03e93ff9f4daa797ed6e38ed64bf6a1f01000000000000000083106119a9577a184f03e93ff9f4daa797ed6e38ed64bf6a1f010000000000000000838161199f5761199e61264d565b5b0492506040810190505b6d04ee2d6d415b85acef810000000083106119e6576d04ee2d6d415b85acef810000000083816119dc576119db61264d565b5b0492506020810190505b662386f26fc100008310611a1557662386f26fc100008381611a0b57611a0a61264d565b5b0492506010810190505b6305f5e1008310611a3e576305f5e1008381611a3457611a3361264d565b5b0492506008810190505b6127108310611a63576127108381611a5957611a5861264d565b5b0492506004810190505b60648310611a865760648381611a7c57611a7b61264d565b5b0492506002810190505b600a8310611a95576001810190505b80915050919050565b6000604051905090565b600080fd5b600080fd5b60007fffffffff0000000000000000000000000000000000000000000000000000000082169050919050565b611ae781611ab2565b8114611af257600080fd5b50565b600081359050611b0481611ade565b92915050565b600060208284031215611b2057611b1f611aa8565b5b6000611b2e84828501611af5565b91505092915050565b60008115159050919050565b611b4c81611b37565b82525050565b6000602082019050611b676000830184611b43565b92915050565b600081519050919050565b600082825260208201905092915050565b60005b83811015611ba7578082015181840152602081019050611b8c565b60008484015250505050565b6000601f19601f8301169050919050565b6000611bcf82611b6d565b611bd98185611b78565b9350611be9818560208601611b89565b611bf281611bb3565b840191505092915050565b60006020820190508181036000830152611c178184611bc4565b905092915050565b6000819050919050565b611c3281611c1f565b8114611c3d57600080fd5b50565b600081359050611c4f81611c29565b92915050565b600060208284031215611c6b57611c6a611aa8565b5b6000611c7984828501611c40565b91505092915050565b600073ffffffffffffffffffffffffffffffffffffffff82169050919050565b6000611cad82611c82565b9050919050565b611cbd81611ca2565b82525050565b6000602082019050611cd86000830184611cb4565b92915050565b611ce781611ca2565b8114611cf257600080fd5b50565b600081359050611d0481611cde565b92915050565b60008060408385031215611d2157611d20611aa8565b5b6000611d2f85828601611cf5565b9250506020611d4085828601611c40565b9150509250929050565b600080600060608486031215611d6357611d62611aa8565b5b6000611d7186828701611cf5565b9350506020611d8286828701611cf5565b9250506040611d9386828701611c40565b9150509250925092565b600060208284031215611db357611db2611aa8565b5b6000611dc184828501611cf5565b91505092915050565b611dd381611c1f565b82525050565b6000602082019050611dee6000830184611dca565b92915050565b600080fd5b600080fd5b7f4e487b7100000000000000000000000000000000000000000000000000000000600052604160045260246000fd5b611e3682611bb3565b810181811067ffffffffffffffff82111715611e5557611e54611dfe565b5b80604052505050565b6000611e68611a9e565b9050611e748282611e2d565b919050565b600067ffffffffffffffff821115611e9457611e93611dfe565b5b611e9d82611bb3565b9050602081019050919050565b82818337600083830152505050565b6000611ecc611ec784611e79565b611e5e565b905082815260208101848484011115611ee857611ee7611df9565b5b611ef3848285611eaa565b509392505050565b600082601f830112611f1057611f0f611df4565b5b8135611f20848260208601611eb9565b91505092915050565b60008060408385031215611f4057611f3f611aa8565b5b6000611f4e85828601611cf5565b925050602083013567ffffffffffffffff811115611f6f57611f6e611aad565b5b611f7b85828601611efb565b9150509250929050565b611f8e81611b37565b8114611f9957600080fd5b50565b600081359050611fab81611f85565b92915050565b60008060408385031215611fc857611fc7611aa8565b5b6000611fd685828601611cf5565b9250506020611fe785828601611f9c565b9150509250929050565b600067ffffffffffffffff82111561200c5761200b611dfe565b5b61201582611bb3565b9050602081019050919050565b600061203561203084611ff1565b611e5e565b90508281526020810184848401111561205157612050611df9565b5b61205c848285611eaa565b509392505050565b600082601f83011261207957612078611df4565b5b8135612089848260208601612022565b91505092915050565b600080600080608085870312156120ac576120ab611aa8565b5b60006120ba87828801611cf5565b94505060206120cb87828801611cf5565b93505060406120dc87828801611c40565b925050606085013567ffffffffffffffff8111156120fd576120fc611aad565b5b61210987828801612064565b91505092959194509250565b6000806040838503121561212c5761212b611aa8565b5b600061213a85828601611cf5565b925050602061214b85828601611cf5565b9150509250929050565b7f4e487b7100000000000000000000000000000000000000000000000000000000600052602260045260246000fd5b6000600282049050600182168061219c57607f821691505b6020821081036121af576121ae612155565b5b50919050565b60006060820190506121ca6000830186611cb4565b6121d76020830185611dca565b6121e46040830184611cb4565b949350505050565b7f4e487b7100000000000000000000000000000000000000000000000000000000600052601160045260246000fd5b600061222682611c1f565b91507fffffffffffffffffffffffffffffffffffffffffffffffffffffffffffffffff8203612258576122576121ec565b5b600182019050919050565b600081905092915050565b600061227982611b6d565b6122838185612263565b9350612293818560208601611b89565b80840191505092915050565b60006122ab828561226e565b91506122b7828461226e565b91508190509392505050565b60008190508160005260206000209050919050565b60006020601f8301049050919050565b600082821b905092915050565b6000600883026123257fffffffffffffffffffffffffffffffffffffffffffffffffffffffffffffffff826122e8565b61232f86836122e8565b95508019841693508086168417925050509392505050565b6000819050919050565b600061236c61236761236284611c1f565b612347565b611c1f565b9050919050565b6000819050919050565b61238683612351565b61239a61239282612373565b8484546122f5565b825550505050565b600090565b6123af6123a2565b6123ba81848461237d565b505050565b5b818110156123de576123d36000826123a7565b6001810190506123c0565b5050565b601f821115612423576123f4816122c3565b6123fd846122d8565b8101602085101561240c578190505b612420612418856122d8565b8301826123bf565b50505b505050565b600082821c905092915050565b600061244660001984600802612428565b1980831691505092915050565b600061245f8383612435565b9150826002028217905092915050565b61247882611b6d565b67ffffffffffffffff81111561249157612490611dfe565b5b61249b8254612184565b6124a68282856123e2565b600060209050601f8311600181146124d957600084156124c7578287015190505b6124d18582612453565b865550612539565b601f1984166124e7866122c3565b60005b8281101561250f578489015182556001820191506020850194506020810190506124ea565b8683101561252c5784890151612528601f891682612435565b8355505b6001600288020188555050505b505050505050565b600081519050919050565b600082825260208201905092915050565b600061256882612541565b612572818561254c565b9350612582818560208601611b89565b61258b81611bb3565b840191505092915050565b60006080820190506125ab6000830187611cb4565b6125b86020830186611cb4565b6125c56040830185611dca565b81810360608301526125d7818461255d565b905095945050505050565b6000815190506125f181611ade565b92915050565b60006020828403121561260d5761260c611aa8565b5b600061261b848285016125e2565b91505092915050565b60006040820190506126396000830185611cb4565b6126466020830184611dca565b9392505050565b7f4e487b7100000000000000000000000000000000000000000000000000000000600052601260045260246000fdfea26469706673582212208d6d0f9aaacef6079f9c762cf073d0cee73eb9b1ea38842c29eaf555cd65609b64736f6c63430008140033",
  "linkReferences": {},
  "deployedLinkReferences": {}
}